:020000040800F2
:10000000C0170020350200082F500008FF400008EC
:100010002D500008AD2400086156000800000000C3
:100020000000000000000000000000003350000845
:100030000F25000800000000315000084D50000856
:100040004F0200084F0200084F0200084F0200084C
:100050004F0200084F0200084F0200084F0200083C
:100060004F0200084F0200084F0200084F0200082C
:100070004F0200084F020008C1240008CD240008E8
:10008000D92400084F0200084F0200084F02000860
:100090004F0200084F0200084F0200084F020008FC
:1000A0004F0200084F0200084F0200084F020008EC
:1000B0004F0200084F020008B1500008014100083B
:1000C0004F0200084F0200084F0200084F020008CC
:1000D0004F020008CD5500084F0200084F020008EB
:1000E0004F0200084F0200084F02000800F002F81B
:1000F00000F090F80AA090E8000C82448344AAF132
:100100000107DA4501D100F085F8AFF2090EBAE82F
:100110000F0013F0010F18BFFB1A43F0010318473B
:100120009C9D0000BC9D0000103A24BF78C878C197
:10013000FAD8520724BF30C830C144BF04680C60ED
:10014000704700000023002400250026103A28BF35
:1001500078C1FBD8520728BF30C148BF0B60704739
:100160006E2900F0D381702900F01583662906F00E
:10017000A485652906F0A185672906F09E85612979
:1001800006F09D8503681B0A28BF41F0800169299C
:1001900000F08081642900F07D81752900F07A816A
:1001A0006F2900F0A282782900F0E182E92900F0AD
:1001B0003D82E42900F03A82F52900F03782EF29E8
:1001C00000F09F82F82900F0E0820368DB0928BF75
:1001D00041F08001632901F01980732901F01E802C
:1001E000E32901F02980F32901F02E8000207047D7
:1001F0001FB501F07FF804000020002106F0BAF8D6
:10020000401C60600020002106F09EF8E0601FBDE9
:1002100010B510BD01F040F81146FFF7E9FF05F0F9
:10022000F3FF01F01DF903B4FFF7F2FF03BC01F087
:1002300061F900000948804709480047FEE7FEE7EA
:10024000FEE7FEE7FEE7FEE7FEE7FEE7FEE7FEE786
:1002500004480549054A064B70470000AF500008A6
:10026000ED000008C0110020C0170020C0130020BE
:10027000C01300201CB50C46064B7B446946009019
:10028000204600F05CF904460020694600F06AF957
:1002900020461CBDE7020000032A40F2308010F027
:1002A000030C00F0158011F8013BBCF1020F624411
:1002B00098BF11F801CB00F8013B38BF11F8013BA2
:1002C000A2F1040298BF00F801CB38BF00F8013B4F
:1002D00011F0030300F02E83083AC0F0088051F8B3
:1002E000043B083A51F804CBA0E80810F5E7121DCA
:1002F0005CBF51F8043B40F8043BAFF30080D207E9
:1003000024BF11F8013B11F801CB48BF11F8012BB4
:1003100024BF00F8013B00F801CB48BF00F8012BD7
:1003200070474FF000020429C0F0128010F0030C57
:1003300000F01B80CCF1040CBCF1020F18BF00F8D8
:10034000012BA8BF20F8022BA1EB0C0100F00DB887
:100350005FEAC17C24BF00F8012B00F8012B48BFE5
:1003600000F8012B70474FF0000200B51346944689
:100370009646203922BFA0E80C50A0E80C50B1F1FD
:100380002001BFF4F7AF090728BFA0E80C5048BF11
:100390000CC05DF804EB890028BF40F8042B08BFAF
:1003A000704748BF20F8022B11F0804F18BF00F8AB
:1003B000012B704770477047704710B500F0ECFA9A
:1003C000006810BD10B5044600F0E6FA046010BDE8
:1003D00070B5044685690068C10601D5302600E085
:1003E0002026C00707D070BDD4E9012130469047D0
:1003F000206A401C20626D1EF6D570BD70B50446A3
:1004000085690078C00707D170BDD4E9012120209B
:100410009047206A401C20626D1EF6D570BD0968A9
:100420004A0501D540B27047C905FCD500B27047F6
:1004300009684A0501D5C0B27047C905FCD580B22C
:10044000704770B50C460546012A05D0287880060D
:1004500000D5EA69002302E0012305E05B1C93421A
:1004600002D2E05C0028F9D1A869E618C01AA86198
:10047000286A184428622846FFF7AAFF04E0D5E955
:10048000012114F8010B9047B442F8D32846FFF736
:10049000B5FF70BD2DE9F0410646002410687529AE
:1004A000314616A510D0FFF7BAFF002802DA404205
:1004B00013A507E031688A0701D512A502E04907B4
:1004C00004D511A5012401E0FFF7B2FF00210A22A3
:1004D00006F1240709E0B0FBF2FCB0FBF2F302FBEB
:1004E0001C00303078541846491C0028F3D12346AC
:1004F0002A463046BDE8F04100F097BA00000000FF
:100500002D0000002B000000200000001168026890
:10051000006A530501D508700AE0D30501D50880AB
:1005200006E0130603D5C217C1E9000200E0086027
:100530000120704701694A1C02610878704700B5C4
:100540008FB0CDE901310021059105497944CDE90C
:1005500003101146684600F029F90FB000BD0000F5
:10056000E5FFFFFF0A6802F8010B0A607047000010
:100570002DE9FF5F15468A460446DFF8AC80F84453
:100580000027D8E900103E46CDE9001010E03AF807
:1005900016106A4602A800F05BFE411C07D02178C5
:1005A000890603D5E269391891420DD80744761CB3
:1005B0002078800602D5E069B84205DDAE42E6DB70
:1005C0003AF816000028E2D1A069C01BA0612046BD
:1005D000FFF7FEFED8E90010CDE90010002017E07B
:1005E0003AF818106A4602A800F032FEB0F1FF3F58
:1005F00081460BD000250DF1080B05E0D4E901215F
:100600001BF8050090476D1C4D45F7D308F101001C
:10061000B0428046E4DB206A384420622046FFF77F
:10062000EDFEBDE8FF9F0000169700002DE9F041A8
:100630008046D21D22F007020025D2E90002F529EA
:1006400015A614D0011E72F1000106DA0023D0EBCA
:10065000030063EB020211A608E0D8F800108B0734
:1006600001D50FA602E0490701D50EA601251146C6
:10067000002408F1240704E000F092F930323A55E2
:10068000641C50EA0102F7D12B463246214640460F
:10069000BDE8F04100F0C9B9000000002D000000E5
:1006A0002B0000002000000030B4002100F12404E1
:1006B00008E002F00705D208303542EA4372DB0851
:1006C0006554491C52EA0305F3D10468002310A2C3
:1006D000250707D5A40600D421B1C46901230DA2C2
:1006E000641EC46130BC00F0A0B910B504462146B8
:1006F0001068FFF79DFE02462046BDE8104000232B
:10070000D2E7D21D22F00701D1E90023CCE7000097
:100710000000000030000000F0B40D46018809051B
:1007200002D5214C7C4402E01F4C7C440E34002155
:1007300000F1240608E002F00F071209E75D42EA23
:1007400003721B097754491C52EA0307F3D102785C
:100750000023120704D5702D06D009B102231134ED
:100760002246F0BC00F061B901231034F8E770B5FF
:1007700004460D4621461068FFF75AFE02462946F8
:100780002046BDE870400023C6E7D21D22F00703D3
:10079000D3E90023C0E70368126843F02003036035
:1007A0000823C3610023B7E7789500002DE9F05FC7
:1007B000894604464FF0000ADFF874B1FB44C0F8E4
:1007C00020A02046E1688847002874D0252806D05C
:1007D000D4E901219047206A401C2062F1E70026FD
:1007E0005F462046E16888472028054607DB312D13
:1007F00005D2781910F8200C08B10643F1E7B007CC
:1008000001D526F00406C4F81CA00027C4F818A0DF
:100810002A2D09D0284605F055FC38B304EB87088B
:10082000303DC8F8185019E059F8041B204604EB75
:1008300087029161E1688847012F054618D1E06978
:10084000002820DA26F020061DE0D8F8180000EB7A
:10085000800005EB40003038C8F818002046E168F9
:100860008847054605F02EFC0028EED1012F0AD05E
:100870002E2D08D12046E16888477F1C0546022FAF
:1008800046F02006C4DBA069002803DA404246F0A7
:100890000106A061F00701D026F010066C2D0BD0E8
:1008A000682D09D04C2D39D06A2D35D0742D35D016
:1008B0007A2D33D016E038E0E1682F46204688478D
:1008C000B842054609D16C2F26D04FF48060E1680C
:1008D000064320468847054604E06C2F1AD04FF4A3
:1008E000807006430DB3A5F14100192802D82035C8
:1008F00046F400664A462946204626604E46FFF7E3
:100900002FFC80B101280BD0F61D26F0070000F166
:10091000080956E74020E4E78020D8E70020D6E722
:1009200006F104094DE7284652E7206ABDE8F09F2A
:100930000895000010B5203AC0F00B80B1E81850BF
:10094000203AA0E81850B1E81850A0E81850BFF4B9
:10095000F5AF5FEA027C24BFB1E81850A0E8185058
:1009600044BF18C918C0BDE810405FEA827C24BFAC
:1009700051F8043B40F8043B08BF7047D20728BF3A
:1009800031F8023B48BF11F8012B28BF20F8023B89
:1009900048BF00F8012B7047004870475C110020E9
:1009A00030B5B0F10A024FEA900E71F100034EEA41
:1009B000817EB0EB0E0061EB91014FEA101E4EEA12
:1009C000017E10EB0E0041EB11114FEA102E4EEAA2
:1009D000016E10EB0E0041EB11214FEA104E4EEA72
:1009E000014E10EB0E0041EB1141401841F10001A6
:1009F0004FEAD00040EA41704FEAD10110EB800588
:100A00004FEA810444EA907444EB01046D1944EB0D
:100A10000404521BA3414FF0000348BF0A3200D523
:100A200030BD401C41F1000130BD2DE9F0470D46BD
:100A300099469246044600F124080168880604D5C8
:100A4000E06921F01001216000E00120A84201DDF1
:100A5000471B00E00027A1697A1902EB0900081A78
:100A6000A0612078C00602D42046FFF7B1FC002622
:100A700008E0D4E901211AF806009047206A401CDA
:100A8000761C20624E45F4DB2078C0060AD520464D
:100A9000FFF79EFC06E0D4E9012130209047206A50
:100AA000401C2062381EA7F10107F4DC07E0D4E9FE
:100AB000012118F805009047206A401C2062281E7A
:100AC000A5F10105F3DC2046FFF798FC207800062D
:100AD00002D50220BDE8F0870120FBE770472DE931
:100AE000FF4F0C461E464FF0FF378BB0D2E9000196
:100AF000DDF860800A908A46C1F30A5505B93D4683
:100B0000002108464FF00000BAF1000F00F4400049
:100B100005DA00EB80004FF4400101EA50004FEA93
:100B20009059B9F1010F00DDB9460A9850EA4A0020
:100B30000ED044F61050A5F2FF3545432F14B8F1FE
:100B4000000F1ED07542291E1EDDC9F100021CE0F7
:100B5000B8F1010F4FF0000001D0302103E0F24363
:100B600005E02154401CB042FBDB3046002200214E
:100B700021540B99C1F80880C1E900200FB0BDE8ED
:100B8000F08FBD1B6D1CDEE74A4600DA694206A8FD
:100B900000F0F4FB06AB93E8070003AB83E8070023
:100BA00050460A9900F0ADFC8DE80700A0F5005012
:100BB0001F3800900398002D0ADD42F21F014A46BB
:100BC0000844002303A90390684600F016FF09E0DB
:100BD000A0F500504A461F38002303A90390684639
:100BE00000F020FF8DE807000004000C03D04FF058
:100BF000FF30410800E01046B8F1000F03D000229A
:100C0000009215461EE0751E05D4FFF7C9FE30326E
:100C100062556D1EF9D5B3460122084302D0002269
:100C20007F1C04E02078302801D100227F1E002A9A
:100C3000099784D01DE0112D07DAFFF7B1FE30329D
:100C400062556D1C50EA0102F5D1084302D00098AC
:100C5000C8B10EE00021681E05E0235C625C6354AD
:100C60002254401E491C8142F7DBAB46A81B401EA4
:100C70000990002004F80B000B98099AC0F808802E
:100C8000C0E9002B7AE711264FF0000857E72DE95D
:100C9000F04F88460446D21D22F0070191B0D1E9F9
:100CA0000001CDE90A0104F0C9FE02460B98C00F0D
:100CB00001D02D2007E02068810701D52B2002E01C
:100CC000202101EAC000032A099001D0072A05DB90
:100CD00003464146204600F011FB0BE120788006D8
:100CE00001D5E06900E00620B8F1650F814606D025
:100CF000B8F1660F18D0B8F1670F70D131E000205D
:100D0000B9F1110F009001DB112301E009F101039A
:100D10000AAA01A90CA8FFF7E2FEDDE90C70002683
:100D200009F10105834647E001204B4600904FF052
:100D300000470AAA01A90CA8FFF7D1FEDDE90DB012
:100D40000C995D46002610B909F101000D18B9EBA8
:100D5000050003D4C0F1FF3609F10105A5EB090038
:100D60002BE0B9F1010F01DA4FF001090020B9F1D0
:100D7000110F0090484601DD112300E003460AAA46
:100D800001A90CA8FFF7ABFEDDE90C704D4600266B
:100D90008346207800070AD4AB4500DA5D4601A8F7
:100DA000012D04DD411911F8011C302907D04F45F0
:100DB00002DA17F1040F04DA012082460FE06D1EFB
:100DC000EEE7002F02DCED1B3E4403E0781CA84256
:100DD00000DD7D1CB81B00F1010A4FF000472078B0
:100DE000000703D4AA4501DB4FF0FF3A0021B7F119
:100DF000004F0DF143088DF8431024D002202B231F
:100E0000002F01DA7F422D230A21021EA0F10100EA
:100E100000DC5FB197FBF1FC97FBF1F201FB1C7C5E
:100E200017460CF1300C08F801CDEEE7A8F10100EF
:100E300003702188090501D5452100E06521A0F155
:100E4000010800F8011C09980FA9A1EB0807FF1D74
:100E500000B10120411901EBEA70A1693844081A78
:100E6000401EA0612078C00602D42046FFF7B0FAE9
:100E7000099828B1D4E901219047206A401C2062DA
:100E80002078C00622D52046FFF7A2FA1EE0002EE9
:100E900004DBB34502DD01A8805D00E03020D4E929
:100EA00001219047206A401C2062761CAAF10100B3
:100EB0005FEA000A0AD100F01DFAC0680168405CD0
:100EC000D4E901219047206A401C2062281EA5F128
:100ED0000105DCDC07E0D4E9012118F8010B90479B
:100EE000206A401C2062381EA7F10107F3DC20466F
:100EF000FFF784FA032011B041E600002DE9F04F1E
:100F000004460D46D21D22F0070089B0D0E90097B3
:100F10004846394604F092FD0246F80F01D02D23D1
:100F200007E02068810701D52B2302E0202101EA98
:100F3000C0038DF820300BB1012000E00020032A0F
:100F4000824601D0072A04DB2946204600F0D6F964
:100F50003FE12078800601D40D2500E0E569C7F364
:100F60000A560D2D49DA00214FEA175B08464FF06B
:100F70000000002F00F4400007DA00EB80004FF47F
:100F8000400100EBD07001EA60008115012901DD0C
:100F90004FF0FF3100224FEA850CBCF1180F06D349
:100FA0001346ACF118004FF08052C24003E04FF4FA
:100FB000801323FA0CF30CF10C0CBCF1200F04D3BA
:100FC000ACF1200C09FA0CF001E007FA0CF0002952
:100FD0004FF0004801DD18B90FE00ED140450CD3A9
:100FE00019EB02095F4121B9404502D19F4329EA2B
:100FF0000209BBEB175F00D0761C2088000502D5E4
:101000007B48784402E07A487844193808AA3023AB
:1010100002F80A30037C0AF10101002E0AF1020AEB
:1010200053546A4602DC4FF0300101E04FF03101C9
:101030004FF001088DF8001002D0A6F2FF3603E051
:1010400059EA470100D06B4E002D02DC21780907D8
:1010500004D54FF002082E218DF80110C44600215E
:101060000BE0C7F303433F01C35C491C6D1E02F84C
:101070000830052908F1010801DA002DF1DC002112
:101080000CE000EB1973491C1B786D1E082902F84F
:1010900008304FEA091908F1010801DA002DF0DCE7
:1010A00021688B0602D516E0A8F10108E04505DDB0
:1010B00002EB080313F8013C302BF5D0B8F1000F18
:1010C00009DD02EB080313F8013C2E2B03D10907BD
:1010D00001D4A8F10108002D05DD3E2102F8081019
:1010E0006D1E08F10108407C002E02F8080008F18E
:1010F000010804DA2D20764202F8080002E02B20D5
:1011000002F808000A214FF47A70864208F10108BB
:101110000BDB96FBF0F3303302F8083096FBF0F36C
:1011200008F1010800FB136601E0642E0CDB64206B
:1011300096FBF0F3303302F8083096FBF0F308F139
:10114000010800FB136601E00A2E06DB96FBF1F0B6
:10115000303002F8080008F1010896FBF1F001FBBD
:101160001060303002F80800A16908F1010808EBAE
:10117000050202EB0A00081AA0612078C00602D41A
:101180002046FFF725F9216A08AE01EB0A0020622C
:1011900004E0D4E9012116F8010B9047BAF1010AE5
:1011A000F7D22078C00602D52046FFF711F96E4627
:1011B00009E016F8010B3E280FD0D4E90121904731
:1011C000206A401C2062B8F10108F2D22046FFF7E5
:1011D00015F909B00320BDE8F08F206A2844206289
:1011E00003E0D4E90121302090476D1EEBD3F8E7EE
:1011F0000D8E000002FCFFFF10B5436913B1AFF381
:10120000008001E0FFF71DF9012010BD127800F108
:1012100024010A7000224A700122EDE711684FF0A4
:10122000FF32E9E710B5436913B1AFF3008001E085
:10123000FFF79EF9012010BD128800F1240182847D
:101240000022C2840122EDE711684FF0FF32E9E786
:1012500070B516460C46054600F044F8036893F84E
:101260000101012806D0FF2C0FD8185D68B10120BC
:101270002C7070BDD3F807013246214603F20713E4
:1012800003442846BDE8704018474FF0FF3070BD5A
:10129000004870475C1100207546FFF7F9FFAE4625
:1012A00005006946534620F00700854618B020B572
:1012B000FEF7CEFFBDE820404FF000064FF00007DC
:1012C0004FF000084FF0000B21F00701AC46ACE8EE
:1012D000C009ACE8C009ACE8C009ACE8C0098D465B
:1012E0007047000010B500F005F8001D10BD00BFEC
:1012F00085500000004870477C1100202DE9F04126
:101300001F46044603260168072A01F4006004DB37
:1013100008B116A505E016A503E008B115A500E083
:1013200015A521F010002060A069C01EA0610FB1BA
:10133000401EA0612046FFF74BF84FB1D4E90121D0
:1013400038469047206A401C2062C01C206206E09C
:10135000206AFAE7D4E9012115F8010B9047761EBF
:10136000F8D22046FFF74AF8BDE8F0814E414E0022
:101370006E616E00494E4600696E66002DE9F047C9
:10138000814616468AB0354878440DC88DE80D0070
:1013900032487844801C03AC0DC884E80D0041F647
:1013A0009B300844372190FBF1F290FBF1F5A5F159
:1013B000800501FB12041B3C02D56442012000E0C1
:1013C0000020DFF898A080460027FA44AAF1BE0A60
:1013D0000EE0E0070AD03246684607EB47010123DA
:1013E0000AEB810100F01EFB8DE8070064107F1CF2
:1013F000002CEED1194F7F44AE3F19E0E80715D01D
:1014000007EB04100DF1180A90E80E008AE80E00B0
:10141000C068F04201D1981908903246012306A90C
:1014200003A800F0FFFA03AB83E807006D10641C0B
:10143000002DE3D14FF0010332466946B8F1000FA9
:1014400003A802D000F0D9FA01E000F0EBFAC9E9F4
:101450000001C9F808200AB0BDE8F087188B000029
:1014600010B50446AFF300802046BDE81040FEF7FB
:10147000DABE00004FF0013C50F8042B51F8043B59
:101480009A4221D1A2EB0C03934313EACC1317D158
:1014900050F8042B51F8043B9A4215D1A2EB0C03EF
:1014A000934313EACC130BD150F8042B51F8043BAF
:1014B0009A4209D1A2EB0C03934313EACC13DBD07D
:1014C0004FF00000704700BFD01A01BAB1FA81F1A5
:1014D00001F0180122FA01F0CB40C1F12001DBB28A
:1014E000C0B2C01A2CFA01F3D11A914311EAC31108
:1014F000E6D1704701491820ABBEFEE72600020086
:1015000070475FEA400C08BF91F0000F4FEA8C2350
:101510004FEAC12243EA51514FEA1C5018BF00F56F
:10152000F0404FEA300018BF41F000415FEA6C5CC8
:1015300000F02980BCF1FF3F08BF40F080407047B9
:10154000130C06BF12044FF0100C4FF0000C130EDA
:1015500004BF12020CF1080C130F04BF12010CF1AE
:10156000040C930F04BF92000CF1020CD30F04BFC4
:1015700052000CF1010C11464FF00002A0F11F00C7
:10158000A0EB0C00704711F0004F08BF704731F01E
:1015900000413FF4D5AF0B0C06BF09044FF0100C0F
:1015A0004FF0000C0B0E04BF09020CF1080C0B0FDE
:1015B00004BF09010CF1040C8B0F04BF89000CF16E
:1015C000020CCB0F04BF49000CF1010CCCF120033D
:1015D000A0EB0C0022FA03F302FA0CF241EA030139
:1015E00000F10100704720F07F4C80EA030023F0F7
:1015F0007F47ACEB070303F57C5300F0004003F199
:10160000FF032DE980494FEA154B09B44FEA144313
:1016100025EA0B4E24EA03480FF2042606EB1327B3
:1016200049083E785FEA320203FB0667C7F5000708
:1016300007FB06F64FEA54374FEAD64606F1020694
:1016400007FB066CCCF1005C4FEA1C472CEA074C08
:1016500007FB06F40CFB06F504EB15464FEA96165D
:1016600034BF00204FF000404FEAD13706FB07FCA3
:101670004FEA1C4C0CFB0BF7D21B03FB0CF761EB86
:1016800007010CFB0EF7B0EB074072EB17420CFBA7
:1016900008F734BFA2EB0742B2EB074261EB1741F8
:1016A0004FEA0C444FEA910706FB07FC4FEA1C4C3B
:1016B0000CFB0BF7B0EBC74072EB573203FB0CF798
:1016C00034BFA2EBC742B2EBC74261EB57310CFB10
:1016D0000EF7B0EBC70072EB57720CFB08F734BF84
:1016E000A2EBC702B2EBC70261EB5771039F4FEA4F
:1016F000816141EA921104EBCC044FEAD1374FEA01
:10170000826206FB07FC42EA90124FEA80604FEAD1
:101710001C4C0CFB0BF7D21B03FB0CF761EB070116
:101720000CFB0EF7B0EB074072EB17420CFB08F70F
:1017300034BFA2EB0742B2EB074261EB17414FEA1D
:101740008C554FEA910704EB9C2406FB07FC4FEAFB
:101750001C4C0CFB0BF7B0EBC74072EB573203FB92
:101760000CF734BFA2EBC742B2EBC74261EB573173
:101770000CFB0EF7B0EBC70072EB57720CFB08F7CF
:1017800034BFA2EBC702B2EBC70261EB577115EB96
:101790004C254FEA816141EA92114FEA82624FEA99
:1017A000D13742EA901206FB07FC44F100044FEAED
:1017B00080604FEA1C4C0CFB0BF7D21B03FB0CF7B1
:1017C00061EB07010CFB0EF7B0EB074072EB174221
:1017D0000CFB08F734BFA2EB0742B2EB074261EB08
:1017E000174115EB1C154FEA813141EA92414FEA4E
:1017F000823242EA90424FEA80304FEA0C7644F15E
:10180000000448EA03434EEA0B484FF0000EB2EBE7
:10181000080C71EB030724BF624639464EEB0E0EEF
:101820004FF0000B0018524149414BEB0B0BB2EB50
:10183000080C71EB03077BF1000B24BF62463946AD
:101840004EEB0E0E4FF0000B0018524149414BEB8E
:101850000B0BB2EB080C71EB03077BF1000B24BF01
:10186000624639464EEB0E0E51EA020718BF46F0AB
:10187000010616EB0E7655F1000254F1000103D576
:10188000BDE88901BDE80088BDE88901BDE80048E0
:10189000B619524141EB0101A3F101037047808069
:1018A0007F7E7D7C7B7A79787776767574737271BA
:1018B00071706F6E6E6D6C6C6B6A6A696868676672
:1018C00066656464636362616160605F5F5E5E5D04
:1018D0005D5C5C5B5B5A5A59595858575756565578
:1018E00055555454535352525251515050504F4FDA
:1018F0004F4E4E4D4D4D4C4C4C4B4B4B4A4A4A492A
:10190000494948484847474747464646454545446C
:101910004444444343434342424242414141002BF9
:101920009C4630D477002BD01CB54FEA370703B460
:101930004FF010004FF01001BAF1000F06D0BCF1CB
:10194000000FDCBF40F0080040F008014FF000003D
:101950000FBCBDE810400BF1010BBBF1010F08BF3C
:101960005FEA170722BF12F1010211F101014FF0E6
:10197000004143F1000300F0004043EA00007047DB
:10198000F9D35708D0E746EA064613F1400F4FEA6D
:1019900016461FDD13F1200FDFBF16430A46002154
:1019A00020335B42BED0C3F1200746EA064602FA66
:1019B00007F74FEA164646EA0706C3F1200722FA60
:1019C00003F201FA07F721FA03F14FF0000342EAAC
:1019D0000702A7E746EA020646EA06464FEA164627
:1019E00046EA0106BCBF46EA0646360C4FF0000345
:1019F0004FF000024FF0000194E72DE9804C9A4629
:101A0000934670B491E8380007C831EA400C48BFEB
:101A100034EA430C03D5FFF7E6FDFFF780FFF0BC87
:101A2000BDE8008C2DE9804C9A46934670B491E84D
:101A3000380007C810F0804F08BF13F0804F03D163
:101A400000F005F8FFF76BFFF0BCBDE8008C20F05C
:101A50007F4780EA030023F07F4C07EB0C03A3F5DC
:101A60007C5300F00040A3F1FE0392F0000F00F061
:101A7000B38095F0000F00F077802DE901494FEA1F
:101A800011404FEA144621EA004800FB06FC24EA14
:101A9000064708FB06F607FB08F800FB07F718EBFC
:101AA00006484CEB164C4FEA124B18EB07484FEA2E
:101AB00015464CEB174022EA0B4E0BFB06FC25EAC1
:101AC00006470EFB06F607FB0EFE0BFB07F71EEBA9
:101AD000064E4CEB164C4FF000061EEB074E4CEB3F
:101AE000174B18EB0B0840F1000018EB0E0B58EBEE
:101AF000000840F100008F1A4FF000013CBFC943BD
:101B0000661B14BFB5EB040C00213CBFC943F61B98
:101B10004FEA17444EEA8E0E27EA04454FEA1C4767
:101B200004FB07622CEA074C05FB07F70CFB05F6E4
:101B300004FB0CFC16EB074642EB174216EB0C4677
:101B400042EB1C421BEB060658EB0202414146EAFF
:101B50009E0601D5BDE80189B619524141EB01014C
:101B6000A3F10103BDE801894FEA14454FEA11478B
:101B700024EA054621EA074C05FB07F406FB07F7B4
:101B80000CFB06F105FB0CFC11EB074144EB174481
:101B90004FEA124711EB0C4144EB1C4422EA074C7C
:101BA00005FB07F206FB07F70CFB06F605FB0CFC32
:101BB00016EB074642EB174216EB0C4642EB1C4570
:101BC0006A1854F1000148BF7047B619524141EB01
:101BD0000101A3F10103704795F0000F37D04FEAE0
:101BE00011424FEA144721EA024624EA074C02FB5D
:101BF00007F106FB07F70CFB06F402FB0CFC14EBE9
:101C0000074441EB17414FEA154714EB0C4441EBF5
:101C10001C4125EA074C02FB07F506FB07F70CFB06
:101C200006F602FB0CFC16EB074645EB174516EBD8
:101C30000C4645EB1C42121951F1000148BF704798
:101C4000B619524141EB0101A3F1010370474FEA7C
:101C500014454FEA114724EA054621EA074C05FBE3
:101C600007F106FB07F70CFB06F24FF0000605FB39
:101C70000CFC12EB074241EB174112EB0C4251EB0B
:101C80001C4148BF7047921841EB0101A3F10103C9
:101C9000704770B50022848813461146A51D06E0E2
:101CA000465C491C3244D2B21344DBB289B28D4245
:101CB000F6D8811D62548488C11D635400F86A2FD0
:101CC000437070BD10B5407805A2002100F0CEFA37
:101CD000BDE810404FF40051054800F0C1BE0000BF
:101CE0005573657246756E633152756E2100000042
:101CF000001001400120704730B5114B11494FF0E1
:101D0000FF340022088800EBC005C5EB801513F8EE
:101D100015500DB1401C09E081B201EBC104C4EBC8
:101D20008111012203F8112030BD0A38088080B2E9
:101D30000A28FAD2521C0A2AE4DB204630BD0000F1
:101D4000AC020020100000200320704710B50446AC
:101D5000FFF7FAFFA04209D904EB0410044900EB95
:101D6000400001EB40008068006810BD002010BDFD
:101D7000DC6D000800F006B8C9B200F0C9BB00F085
:101D80005BBB0000F0B42E4901220C7874B10B4605
:101D90001A1D5B88012C0FD0022C16D0032C20D0EA
:101DA0000025042C25D00D70F0BC7047AB28FBD16A
:101DB0000A704A800871F7E798544888401C80B23E
:101DC00048800628F0D3022009E098544888401C37
:101DD00080B248800A89921D9042E5D303200870A2
:101DE000E2E798544A88521C4A8081F86E00042029
:101DF000F5E798544A880B1D521C4A8081F86F0001
:101E00000D7000200A790546AB2ACDD19C880022AE
:101E1000A41D06E09E5C521C3044C0B20544EDB2E5
:101E200092B29442F6D893F86A208242BCD193F8D9
:101E30006B00A842B8D1F0BC081D04F04BB90000FB
:101E40003C0200202DE9F0471E4692468946804616
:101E50000025FFF751FF002823DB00EBC001C1EB99
:101E600080111148012700EB410400F81170AB22EA
:101E7000A270AA20E07084F8048084F80590002005
:101E800008E000BF62191AF800106D1C401C1172A6
:101E9000EDB280B2B042F5D3E580A01CFFF7F9FEA9
:101EA0006770BDE8F0870000AC0200202DE9F04724
:101EB0009946164688460746FFF71EFF00281BDB9B
:101EC00000EBC001C1EB80110C48012500EB41047F
:101ED00000F81150AB22A270AA20E07027710020F8
:101EE000607184F80880667284F80A900320E080AC
:101EF000A01CFFF7CEFE6570BDE8F087AC020020A5
:101F00002DE9F3410746FFF7F5FEBDF80460B04246
:101F100056D9FFF7F1FE002852DB00EBC001C1EB00
:101F200080112848012500EB410400F81150AB2234
:101F3000A270AA20E0702771C22060719DF8040091
:101F400020729DF80500607206EB06101E4900EB3A
:101F50008000095CA1721C4908444178E1728178D3
:101F60002173C17861730179A1734179E17381793A
:101F70002174C1796174017AA174417AE174817A22
:101F800021750D21002283186618491C521CDB7A2A
:101F9000D2B23372C9B2142AF5D3002207E0661810
:101FA000521C491CD2B23372C9B2322A03D88318E8
:101FB000DB7F002BF3D1E180A01CFFF76AFE657088
:101FC000BDE8FC81AC0200200E6F0008F8B50646A3
:101FD000FFF792FE002824DB00EBC001C1EB80116B
:101FE0001048012500EB410400F81150AB22A2700B
:101FF000AA20E0702671C120607100262672FFF7CA
:1020000079FEADF800009DF8000060729DF80100B7
:10201000A072E67226730520E080A01CFFF739FE4F
:102020006570F8BDAC020020F8B50646FFF764FE07
:1020300000284BDB00EBC001C1EB801124480125D7
:1020400000EB410400F81150AB22A270AA20E0700E
:102050002671E321617120721220ADF800009DF815
:10206000000060729DF80100A0721320ADF800001E
:102070009DF80000E0729DF80100207340F22310EB
:10208000ADF800009DF8000060739DF80100A0739A
:102090004FF44870ADF800009DF80000E0739DF823
:1020A00001002074092100200AA207E06618401CE4
:1020B000491CC0B23372C9B2142802D8135C002B79
:1020C000F4D1E180A01CFFF7E4FD6570F8BD0000CD
:1020D000AC02002053544D33324631303343380084
:1020E0002DE9F3410746FFF72FFEBDF80460B0422B
:1020F00052D9FFF701FE00284EDB00EBC001C1EB17
:1021000080112648012500EB410400F81150AB2254
:10211000A270AA20E0702771E22060719DF804008F
:1021200020729DF80500607206EB061000EB40017E
:102130001B4810F8112000EB4101A2724878E072B0
:1021400088782073C87860730879A0734879E07341
:1021500088792074C87960740A2000228B182618A8
:10216000401C521C1B7BD2B23372C0B2142AF5D36E
:10217000002207E02618521C401CD2B23372C0B2B3
:10218000322A04D88B1893F82030002BF2D1E0804B
:10219000A01CFFF77EFD6570BDE8FC81AC0200204D
:1021A000DC6D0008F8B50646FFF7A6FD002821DB28
:1021B00000EBC001C1EB80110F48012500EB410489
:1021C00000F81150AB22A270AA20E0702671E02026
:1021D00060712572FFF7B8FDADF800009DF80000B2
:1021E00060729DF80100A0720320E080A01CFFF740
:1021F00050FD6570F8BD0000AC0200202DE9F341F0
:102200000746FFF7A1FDBDF80460B0422AD9FFF7E9
:1022100073FD002826DB00EBC001C1EB80111248E2
:10222000012500EB410400F81150AB22A270AA2056
:10223000E0702771E12060719DF8040020729DF824
:10224000050060723046FFF781FDA072010AE1725D
:10225000010C2173000E60730620E080A01CFFF7C4
:1022600018FD6570BDE8FC81AC0200202DE9F0414D
:10227000164688460746FFF73FFD002825DB00EBA2
:10228000C001C1EB80111248012500EB410400F8A8
:102290001150AB22A270AA20E0702771A0206071BB
:1022A00084F808802946002007E06318401C491C78
:1022B000C0B21A72C9B2322802D8325C002AF4D1F4
:1022C000E180A01CFFF7E5FC6570BDE8F08100002F
:1022D000AC02002070B50C460546FFF735FDA8425C
:1022E0000FD905EB051000EB4001064800EB41005B
:1022F0000168A14202DA4168A14200DA0C46806816
:10230000046070BDDC6D00082DE9F043464C89B0D7
:102310002088401C80B22080B0F5B47F01D300201B
:10232000208080B2ADF8000004F0BAFADFF8FC902B
:1023300000224B4604F016F93D4EDFF8F880324695
:10234000434604F0C1FA03F0AFFF00224B4604F00D
:10235000BBFA00224B4604F055F804F021F805467C
:102360002088783004F09CFA00224B4604F0FAF8FA
:102370003246434604F0A8FA03F096FF00224B468B
:1023800004F0A2FA00224B4604F03CF804F008F8EE
:1023900007462088F03004F083FA00224B4604F010
:1023A000E1F83246434604F08FFA03F07DFF002245
:1023B0004B4604F089FA00224B4604F023F803F060
:1023C000EFFF01469DF800008DF808009DF8010020
:1023D0008DF809008DF80A50280A8DF80B00280C9A
:1023E0008DF80C00280E8DF80D008DF80E70380A4F
:1023F0008DF80F00380C8DF81000380E8DF8110094
:102400008DF81210080A8DF81300080C8DF81400CE
:10241000080E8DF815000E2302AAF221FE20FFF708
:1024200011FD09B0BDE8F083140000200080664073
:102430006E861BF0F921094070B51A4D1A4C002028
:10244000618801EBC102C2EB811215F81230012B39
:1024500004D105EB42025278012A01D0491C19E04F
:1024600088B200EBC001C1EB801005EB4000C188D1
:10247000801C083189B2FFF77FFC6188002001EBE6
:10248000C102C2EB811105F8110005EB4101487052
:1024900070BD0A39618089B20A29FAD2401C0A2823
:1024A000CEDB70BDAC02002010000020FEE7000073
:1024B0004FF480610148FDF734BF00005C0C002040
:1024C000014800F0BBB80000A8010020014800F05E
:1024D000B5B80000EC010020014800F0AFB80000E2
:1024E0007000002030B590F840500124AC40C56B1E
:1024F0006C60046863604368102B036803D09960C4
:102500000068C26030BD9A600068C16030BD70472D
:10251000F0B40022084C094D06E02378865CEE54A6
:102520005B1C521C2370D2B28A42F6D32278F0BCD4
:102530000249034801F09ABD16000020F806002069
:102540006001002072B6FEE7014800787047000085
:102550001900002010B590F821100022022905D0A2
:102560000421816380F82020012010BD01680B68E0
:1025700023F00E030B6001680B6823F001030B606E
:1025800090F84030C46B012101FA03F3636080F8D6
:10259000211080F82020104610BD000010B590F8E2
:1025A00021100024022903D00421816301243DE08D
:1025B00001680A6822F00E020A6001680A6822F0C7
:1025C00001020A601A4A0168914201D1012121E009
:1025D000174A1432914201D110211BE0144A2832CB
:1025E000914201D1891515E0114A3C32914201D145
:1025F00089140FE00E4A5032914202D14FF48031DB
:1026000008E00B4A6432914202D14FF4801101E09C
:102610004FF08071064A083A5160012180F821107C
:10262000002180F82010416B01B18847204610BD81
:102630000800024090F82100704700002DE9F05F8B
:10264000C16B0C6801680B68D0F840C0042202FA24
:102650000CF2494DDFF824A1494E4A4FDFF828B16A
:10266000DFF828E122422CD05A072AD50A689206C0
:1026700003D40A6822F004020A600168A94201D169
:10268000042219E0514501D1402215E0B14202D1A6
:102690004FF4806210E0B94202D14FF480420BE067
:1026A000594502D14FF4802206E0714502D14FF422
:1026B000800201E04FF080622F4908394A60C16A08
:1026C0003BE04FF0020808FA0CF818EA040F4FF04C
:1026D00000094FF0010235D05FEA837832D50B68EC
:1026E0009B0605D40B6823F00A030B6080F82120B9
:1026F0000168A94201D1022219E0514501D12022ED
:1027000015E0B14202D14FF4007210E0B94202D19B
:102710004FF400520BE0594502D14FF4003206E06D
:10272000714502D14FF4001201E04FF000721249DE
:1027300008394A6080F82090816A00291AD0BDE8E3
:10274000F05F0847082505FA0CF5254212D01B0753
:1027500010D50B6823F00E030B6090F84010C36B8C
:1027600002FA01F15960826380F8212080F82090FC
:10277000016BE2E7BDE8F09F080002401C00024048
:102780003000024044000240580002406C00024009
:1027900030B528B308C8134914221944B1FBF2F12B
:1027A0008900C16310498163022141771A6843F6A9
:1027B000F0718A43D0E900142143D0E902452C434B
:1027C000214304692143446921438469214311431E
:1027D000196000214163012242770177084630BD2C
:1027E000012030BDF8FFFDBF0000024070B5044677
:1027F00090F82000002501280CD0012084F820004A
:1028000094F821600020012E06D084F820000225D3
:10281000284670BD022070BD022684F82160A063A6
:102820002068066826F0010606602046FFF75AFE7B
:10283000E06A00282068016802D041F00E0106E03D
:1028400021F0040101602068016841F00A01016083
:102850002068016841F001010160D9E770B50446C4
:1028600000F00CF90546601C02D0044800780444CE
:1028700000F004F9401BA042FAD370BD0000002014
:102880002DE9F84FDFF8B8910024A9F1040B234695
:102890000F2709F1040AABF1040EC9E00125A54098
:1028A0002A40AA427DD1674ED1F804C0ACEB06089D
:1028B000B44532D014DCBCF1030F3AD009DCBCF1D2
:1028C000000F2AD0BCF1010F1CD0BCF1020F31D196
:1028D0001DE0BCF1110F17D0BCF1120F2AD119E085
:1028E000B8F5881F19D006DCB8F5803F15D0B8F5CB
:1028F000801F1FD111E0B8F5001F0ED0B8F5041FDE
:1029000018D10AE0CB6815E0CB681B1D12E0CB683C
:1029100008330FE0CB680C330CE08B682BB1012B34
:102920004FF0080303D0456104E0042302E0056191
:1029300000E00023FF2A01D8064601E000F104066A
:102940004FEA840501D9A5F12005D6F8008007FAE1
:1029500005FC28EA0C0803FA05F548EA0508C6F85C
:1029600000804D68ED0062D5374DAE6946F0010636
:10297000AE61AD6924F0030605F001050095334D05
:1029800006EB050CDCF80850A607360F07FA06F828
:1029900025EA0805DFF8B880404503D14FF000086C
:1029A00017E044E0DFF8AC80404502D14FF0010869
:1029B0000FE0DFF8A480404502D14FF0020808E0A4
:1029C000DFF89880404502D14FF0030801E04FF056
:1029D000040808FA06F848EA0508CCF808804D68AB
:1029E000D9F80060ED024D4601D5164300E096434C
:1029F0002E604D68DAF80060AD02554601D51643E9
:102A000000E096432E604D68DBF80060AD035D4644
:102A100001D5164300E096432E604D68DEF8006055
:102A2000ED03754601D5164300E096432E60641C05
:102A30000D682A46E5407FF431AFBDE8F88F00000D
:102A40000804014000001110001002400000014085
:102A500000080140000C014000100140001401403A
:102A6000C26821EA02030A4043EA02410161704759
:102A70000AB1016170470904FBE700000148806862
:102A80007047000000000020704770472DE9F047B4
:102A9000026800215368C66A90F83E4090F83D50A5
:102AA000102C12D0402C10D0046C002C7DD0546916
:102AB000E443A6077AD4DE43B60577D4036C03B1AA
:102AC0009169BDE8F04701F0FFBF976951694FF484
:102AD0002A0CC9435FEAC1784FF02A4904D0664501
:102AE0002AD04E4528D010E0DE43B6050DD4C16A89
:102AF000614501D1012103E0C16A494501D10821A5
:102B0000C162BDE8F04701F0F1BE0E0716D4DE4306
:102B1000B60513D4416CC9B21161416B09B1896A20
:102B200029B9816B002907D0896A002904D000687F
:102B3000416841F400614160BDE8F0878E0706D42A
:102B4000DE43B60503D4BDE8F04701F023BEFE43E3
:102B5000526876074FEA02521DD4002AECDB0A06BF
:102B600008D4DA43520505D4490705D5BDE8F04736
:102B700001F0B4BD4907DFD4D9438905DCD4212D48
:102B800005D0402CD8D1BDE8F04701F0F5BEBDE836
:102B9000F04701F061BD002ACEDB4A060BD4DA43D0
:102BA000520508D4490708D501E00DE00EE0BDE864
:102BB000F04701F0DDBC4907BED4D9438905BBD439
:102BC000BDE8F04701F06BBC916970E7E10606D4FF
:102BD000D943890503D4BDE8F04701F099BF282106
:102BE000212D27D0292D25D0650655D4DD436D052F
:102BF00052D4640752D590F83D30448D002C9BD0C0
:102C00001269446A2270426A521C4262428D521E0C
:102C10004285428D002A8FD12A2B8DD102685368BC
:102C200023F4806353602222026380F83D1000F099
:102C3000E3FA81E7250623D4DD436D0520D464073C
:102C400020D590F83D30448D002CF2D0446A247891
:102C50001461426A521C4262428D521E4285428D6C
:102C6000002AE6D1292BE4D10268536823F480635B
:102C700053602122026380F83D1000F0BEFA5BE74A
:102C80006107D6D4D9438905D3D4418D0029D0D04A
:102C9000416A097811610AE06107CAD4D9438905FC
:102CA000C7D4418D0029C4D01169426A1170416AAC
:102CB000491C4162418D491E41853DE77047000036
:102CC00070B5040025D094F83D00002520B984F8A3
:102CD0003C50204600F040FA242084F83D00206853
:102CE000016821F0010101602068016841F40041A0
:102CF00001602068016821F40041016000F0ACFB34
:102D00004D4A6168914201D84C4900E04C498842E3
:102D100001D2012070BD4B492368B0FBF1F15E6820
:102D200026F03F060E435E606368934206D94FF477
:102D3000967359434FF47A73B1FBF3F12368491C3E
:102D40001E6A26F03F06314319626168914210D82D
:102D50004900401EB0FBF1F2521CC2F30B02042AE0
:102D600001D2042022E0B0FBF1F0401CC0F30B00C4
:102D70001CE0A268F2B301EBC10303EB0116431E92
:102D8000B3FBF6F35B1C43F480431B0549D092B3BD
:102D900001EBC10202EB0111401EB0FBF1F0401C3F
:102DA000C0F30B0040F4804040F400402168CA6941
:102DB0004CF6FF739A431043C861D4E907100143EE
:102DC0002068026822F0C00211430160D4E90301C7
:102DD00001432068826848F2FF339A4311438160BF
:102DE000D4E9050108432168CA6822F0FF021043B4
:102DF000C86001E00EE016E02068016841F00101C2
:102E000001602564202084F83D00256384F83E504D
:102E1000002070BD01EB4106431EB3FBF6F35B1CC3
:102E2000B3E70120C2E701EB4101401EB0FBF1F026
:102E3000401CC0F30B00B7E7A086010080841E0091
:102E400000093D0040420F007047704770477047CF
:102E500038B50F4C2078401CC0B22070082815D21D
:102E6000B0308DF8000000208DF8010010208DF8A2
:102E7000020003226946002002F0A0FD05482178E7
:102E8000802200EBC111402002F0A6FD38BD0000F9
:102E90001A0000205C0800202DE9FF4F83B09A46FD
:102EA000DDE9119793460446DDF84080FFF7E6FD23
:102EB000054694F83D0020287FD11923012240497E
:102EC0002046009501F0FEFE002876D194F83C00E3
:102ED000012872D0012084F83C0020680168C907ED
:102EE00003D1016841F0010101602068016821F40B
:102EF00000610160212084F83D00402084F83E00FC
:102F000000262664C4F82480A4F82A90608D2085C9
:102F10002C48E062CDE9007553465A462046049994
:102F200001F07EFD70B930E02A463946204601F0B6
:102F30006FFF58B1206C042804D12068016841F467
:102F400000710160012007B0BDE8F08F606A216860
:102F500000780861606A401C6062218D491E89B258
:102F60002185628D521E628522685369DB435B07AF
:102F70000BD469B100781061606A401C6062208DDA
:102F8000401E2085608D401E6085208D0028CBD19D
:102F90002A463946204601F069FE0028CAD154F875
:102FA0003D0B016841F400710160202004F81E0906
:102FB000E67766770020C6E7FFE70220C3E7000058
:102FC000020010000000FFFF2DE9FC5F002598467D
:102FD00091468A460446DDF830B00095FFF74EFD75
:102FE000074694F83D00202828D1574846F2A811FA
:102FF00020260068B0FBF1F000EBC00101EB0010EF
:1030000000900098401E009010D020688069C04356
:103010008007F6D594F83C0001280FD0012084F8F1
:103020003C0020680168C9070BD00EE044F8305F0F
:103030006673A573206940F0200020610220BDE87E
:10304000FC9F016841F0010101602068016821F4E2
:1030500000610160212084F83D00402084F83E009A
:103060002564C4F824B00D986085608D20853748AC
:10307000E062C4F844A0C4F84890C4F84C802565C8
:10308000208DE8B3606BF0B131498162616B3148EA
:103090000863606BC562606B45632268238D1032E4
:1030A000616A606BFFF7A2FBB0B184F83D6084F801
:1030B0003E5054F8400F40F0100000BF44F804099F
:1030C00025700120BBE784F83D6084F83E5054F839
:1030D000400F40F08000F1E72320CDE90007434690
:1030E0004A465146204601F09BFC98B1606BFFF7C1
:1030F00055FA606B85622068016821F4806100E008
:1031000019E00160258565852068016821F00101CD
:103110000160D6E7206841698169009184F83C50DC
:10312000416841F4807141602068416841F4006168
:103130004160002083E784F83D6084F83E5054F8F5
:10314000400F40F04000B9E70C0000200000FFFFF6
:10315000FF410008C941000870B586B00025064649
:10316000009501950295039500681E49884236D165
:103170001D4CA06940F00800A061A069694600F0FC
:1031800008000490C02000901220019003200390BA
:103190001648FFF775FBE06940F40010E061E06954
:1031A000144C00F400100490114820601020C4E971
:1031B00001058020C4E903056561A5612046E5613C
:1031C000FFF7E6FA08B1FFF7BDF974630022114674
:1031D0001F20666200F078F81F2000F067F806B044
:1031E00070BD00000054004000100240000C01407F
:1031F0006C000240700000207047704702488168F0
:10320000027811448160704700000020074810B523
:10321000016841F010010160032000F075F8002002
:1032200000F006F800F024F8002010BD0020024055
:1032300070B50D4D04464FF47A712878B1FBF0F06B
:103240000A490968B1FBF0F000F0DCFA48B9102C2B
:1032500007D200222146501E00F036F800206C6094
:1032600070BD012070BD0000000000200C00002097
:103270000D4808B5816941F001018161816901F062
:1032800001010091C16941F08051C161C06900F044
:1032900080500090042000F037F800220721BDE89C
:1032A0000840501F00F010B800100240002809DB51
:1032B00000F01F02012191404009800000F1E02050
:1032C000C0F8001170470000F0B40E4B1B680C46AC
:1032D000C3F30223C3F10705042D00D90425191DEA
:1032E000072901D2002300E0DB1E012606FA05F1C2
:1032F000491E214099409E40761E16403143F0BC45
:1033000002F0B0BB0CED00E0064900F007020868CF
:103310004FF6FF03184040EA0220034A10430860BA
:10332000704700000CED00E00000FA052DE9F047C1
:103330000F46050061D0434E306800F00700B842E8
:1033400009D2306820F0070038433060306800F060
:103350000700B84251D128683B4C810712D540077D
:1033600003D5606840F4E06060602878000703D50A
:10337000606840F4605060606068A96820F0F00008
:10338000084360602878C00728D06868012810D0FA
:103390002168022810D0890700292EDA616821F0FF
:1033A000030101436160FFF769FB804641F2883900
:1033B0000DE021688903EFE78901EDE7FFF75EFB88
:1033C000A0EB0801494502D90320BDE8F0876068F9
:1033D000696800F00C00B0EB810FEFD1306800F0AD
:1033E0000700B8420BD9306820F00700384330603E
:1033F000306800F00700B84201D00120E5E72878E6
:10340000400705D56068E96820F4E0600843606023
:103410002878000706D56068296920F4605040EAE2
:10342000C100606000F038F86168084AC1F3031118
:10343000515CC8400649086006480068FFF7F8FE7E
:103440000020C2E70020024000100240C46D0008C6
:103450000C00002004000020044805490068496869
:10346000044AC1F30221515CC84070470C0000209F
:1034700000100240D46D00080448054900684968FE
:10348000044AC1F3C221515CC84070470C000020BF
:1034900000100240D46D00080E4A51680E4801F039
:1034A0000C03042B11D0082B0FD10C48C1F383431C
:1034B000C903C05C0AD55168084AC1F34041921E55
:1034C000515C054A5043B0FBF1F070470449484352
:1034D000704700000010024000127A00B46D00082E
:1034E00000093D002DE9F84F040070D02078C04D50
:1034F000C00749D06868C0F38100012807D0686818
:10350000C0F38100022809D16868C00306D5286885
:10351000800339D560680028E7D035E06068B0F5F1
:10352000803F0BD010B1B0F5A02F11D0286820F447
:1035300080302860286820F4802002E0286840F469
:1035400080302860606890B1FFF798FA06460AE07C
:10355000286840F480202860F0E700BFFFF78EFA6B
:10356000801B642873D828688003F7D50CE0FFF728
:1035700085FA064605E000BFFFF780FA801B642845
:10358000F0D828688003F7D420789A4E80074FF04F
:1035900001094FF0000839D5686810F00C0F07D00A
:1035A0006868C0F38100022809D16868C00306D4A6
:1035B0002868800714D52069012808D110E0206907
:1035C000B0B1C6F80090FFF759FA074605E00AE1E6
:1035D000FFF754FAC01B0228C4D828688007F7D523
:1035E0002868616920F0F80040EAC10028600DE019
:1035F000C6F80080FFF742FA074604E0FFF73EFAFC
:10360000C01B022823D828688007F7D42078000739
:103610002CD57948A169D9B1C0F80090FFF72EFAEE
:10362000074604E0FFF72AFAC01B02280FD8686A91
:103630008007F7D571484FF4FA510068B0FBF1F0FC
:10364000009000BF0098411E0091FAD20EE080E089
:10365000C0F80080FFF712FA074604E0FFF70EFA01
:10366000C01B022875D8686A8007F7D42078400705
:1036700060D5E8690027C00008D4E86940F08050B0
:10368000E861E869012700F0805000905C4801681B
:10369000C90513D40168834641F480710160FFF7C6
:1036A000EDF9824606E000BFFFF7E8F9A0EB0A005B
:1036B00064284ED8DBF80000C005F5D5E068012885
:1036C0000AD008B1052813D0286A20F0010028622A
:1036D000286A20F0040002E0286A40F00100286215
:1036E000E06841F2883B98B1FFF7C8F982460BE0E9
:1036F000286A40F004002862EEE700BFFFF7BEF939
:10370000A0EB0A0159455AD8286A8007F6D50CE083
:10371000FFF7B4F9824605E0FFF7B0F9A0EB0A0124
:1037200059454CD8286A8007F6D41FB1E86920F0C3
:103730008050E861E06988B36968C1F381010229BA
:1037400044D00228C6F8608004D0FFF797F90446F9
:1037500038E034E0FFF792F9074604E0FFF78EF90E
:10376000C01B02282BD828688001F7D4206AB0F546
:10377000803F05D16868A16820F400300843686084
:10378000D4E908010843696821F4741108436860AA
:10379000C6F86090FFF772F9044606E025E000BF26
:1037A000FFF76CF9001B022809D828688001F7D5BB
:1037B0001BE000BFFFF762F9001B022802D90320BB
:1037C000BDE8F88F28688001F4D40EE00128F7D016
:1037D0006868226A00F48031914204D1616A00F481
:1037E0007010884201D00120EAE70020E8E70000DD
:1037F0000010024000004242800442420C000020BF
:103800000070004010B5401EB0F1807F01D3012050
:1038100010BD4FF0E02460610F21601702F022F923
:103820000020A06107202061002010BD7047704774
:1038300070B590F83C20012A26D0012480F83C4045
:10384000022280F83D2003685A689D6822F07006C5
:103850000A6832435A600D4B02689A4208D0B2F1AE
:10386000804F05D00A4B9A4202D00A4B9A4204D1AB
:10387000496825F080031943916080F83D4000219C
:1038800080F83C10084670BD022070BD002C01403D
:10389000000400400008004010B5040003D094F874
:1038A0003D0010B107E0012010BD002084F83C006D
:1038B000204600F01FF8022084F83D00211D2068FA
:1038C00001F0FCFB012084F8460084F83E0084F8F7
:1038D0003F0084F8400084F8410084F8420084F8F6
:1038E000430084F8440084F8450084F83D0000203B
:1038F00010BD000008B500680B49884212D10B4882
:10390000C16941F00401C161C069012200F00400F5
:10391000009007211E20FFF7D7FCBDE808401E20BD
:10392000FFF7C4BC08BD00000008004000100240C2
:1039300090F83D10012901D001207047022180F844
:103940003D100168CA6842F00102CA6000680B4974
:10395000884208D0B0F1804F05D00949884202D092
:103960000849884204D1816801F00701062903D083
:10397000016841F00101016000207047002C014006
:10398000000400400008004070B5044690F83C0078
:103990000025012817D0012684F83C60022084F815
:1039A0003D002068826822F0770222F47F42826024
:1039B0000868502838D00DDC20284FD005DC90B3A3
:1039C000102811D14AE0022070BD302846D040288E
:1039D0000AD13BE060282FD070280DD0B0F5805F71
:1039E00003D0B0F5005F12D0012584F83D600020BF
:1039F00084F83C00284670BDCB68D1E901212068DD
:103A000001F092FB2068816841F0770109E0CB6802
:103A1000D1E90121206801F087FB2068816841F429
:103A200080418160E1E719E0CA684968206801F0D7
:103A30008DFB5021206806E0CA684968206801F0C3
:103A400096FB6021206801F079FBCEE7CA684968DF
:103A5000206801F07BFB40212068F4E722680146E2
:103A60001046F0E7704770B50446006801694FF0F2
:103A70000005C943890715D4C168C943890711D412
:103A8000E91E0161012020772068806980072046B7
:103A900002D0FFF7E7FF04E000F098F8204600F0BE
:103AA00096F8257720680169C943490717D4C1688A
:103AB000C943490713D46FF0040101610220207744
:103AC0002068806910F4407F204602D0FFF7CAFFCB
:103AD00004E000F07BF8204600F079F825772068B4
:103AE0000169C943090716D4C168C943090712D43B
:103AF0006FF008010161042020772068C069800709
:103B0000204602D0FFF7AEFF04E000F05FF8204649
:103B100000F05DF8257720680169C943C90617D40C
:103B2000C168C943C90613D46FF0100101610820B0
:103B300020772068C06910F4407F204602D0FFF74C
:103B400091FF04E000F042F8204600F040F82577AD
:103B500020680169C943C90708D1C168C943C907B9
:103B600004D1891E0161204600F032F82068016905
:103B7000C943090609D4C168C943090605D46FF0D1
:103B8000800101612046FFF751FE20680169C943A9
:103B9000490609D4C168C943490605D46FF04001FC
:103BA0000161204600F022F820680169C9438906B6
:103BB0000BD4C168C943890607D46FF020010161A5
:103BC0002046BDE87040FFF732BE70BD70477047B9
:103BD000054910B5884205D102F0EEFABDE8104063
:103BE000FEF7CDB810BD0000B4000020704770474C
:103BF00010B504460068406994F84110C0F3C01045
:103C0000212911D180B12068143050E8001F21F023
:103C1000800140E80012002AF5D1A06B08B1FEF740
:103C200099FC204601F0BEFB2068406994F84210E0
:103C3000C0F38010222911D180B12068143050E8DF
:103C4000001F21F0400140E80012002AF5D1E06B8E
:103C500008B1FEF77FFC204601F07DFB002010BD7F
:103C600070470000F8B5016804460868CA684B69E7
:103C700010F00F0F4FF0000559D003F0010602F4C9
:103C80009077374365D0C10705D0D10503D5616C66
:103C900041F001016164410705D5D90703D0616C8A
:103CA00041F002016164810705D5D90703D0616C39
:103CB00041F004016164010707D502F0200131439E
:103CC00003D0616C41F008016164616C00293AD055
:103CD000800604D5900602D5204601F071FB2068CD
:103CE0004069616CC0F38010090700D460B32046BE
:103CF00001F031FB20684069400621D5206814306E
:103D000050E8001F21F0400140E80012002AF5D1E0
:103D1000E06BA8B16D494163E06BFEF73FFC002802
:103D200011D0E06B416B01B0BDE8F040084783065D
:103D30000FD593060DD52046BDE8F84001F040BBF5
:103D40002046FFF78DFFF8BD2046FFF789FF656429
:103D5000F8BD266B2023012E7CD1C6067AD5D60667
:103D600078D508684868009048694FF00206400618
:103D700040D5E16B086840680004000CE8D0A28DD3
:103D80008242E5D9E085886920282DD020680C3052
:103D900050E8001F21F4807140E80012002AF5D19C
:103DA0002068143050E8001F21F0010140E80012A3
:103DB000002AF5D12068143050E8001F21F040019E
:103DC00040E80012002AF5D184F8423025632068CB
:103DD0000C3050E8001F21F0100140E80012002ACA
:103DE000F5D1E06BFEF7B6FB6663A08DE18D401A5E
:103DF00081B22AE0A08DE18D401A81B2E08D0028C9
:103E0000A6D00029A4D022680C3252E8000F20F47A
:103E1000907042E80007002FF5D12068143050E878
:103E2000002F22F0010240E80027002FF5D184F88E
:103E30004230256320680C3050E8002F22F0100239
:103E400040E80023002BF5D166632046FFF7CFFE44
:103E5000F8BDFFE705062BD5150629D594F84100D6
:103E60002128F5D1A068B0F5805F01D12069B0B1FB
:103E7000206A411C2162216800784860E08C401E65
:103E80000004000CE084E3D12068C16821F08001C7
:103E9000C1602068C16841F04001C160D8E7206A74
:103EA0000088C0F308004860206A801C2062E5E7B3
:103EB0004006CDD55006CBD5CA68204622F0400238
:103EC000CA6084F8413000F00DF9C1E70D520008D6
:103ED00070B5040004D094F84100002510B106E04C
:103EE000012070BD84F84050204600F023F82420C3
:103EF00084F841002068C16821F40051C160204667
:103F000001F0C0FA2068016921F490410161206844
:103F1000416921F02A0141612068C16841F40051E2
:103F2000C1606564202084F8410084F84200656324
:103F3000002070BDF0B585B00024064600940194C1
:103F40000294039400682C49884253D12B4881691C
:103F500041F480418161816901F48041049181696A
:103F600041F0040181618069254D00F00400049056
:103F70004FF40070009002200190032003906946E6
:103F80002846FEF77DFC2815CDE900046946284641
:103F90000294FEF775FC1C4D1A48802701C51020BD
:103FA00091C5194845F810496C61AC61EC61FEF7A8
:103FB000EFFB08B1FEF7C6FAB5636E62124D114809
:103FC00044351430C5E90004C5E902472C616C6131
:103FD000AC612846EC61FEF7DBFB08B1FEF7B2FAF4
:103FE000F5630022032125206E62FFF76DF925207D
:103FF000FFF75CF905B0F0BD003801400010024049
:104000000008014044000240A801002090F842301E
:10401000202B01D00220704721B11AB10023036385
:1040200001F08CBA0120704770B50D49884216D155
:10403000818DC06B006840680A4E081A85B2002462
:1040400004E0305D02F0D0F8641CA4B2AC42F8D3B6
:10405000BDE87040632203490148FFF7D7BF70BD38
:1040600060010020FC0000207047000070B504468D
:1040700090F84100202801D0022070BD49B342B31E
:104080002162A284E28400206064212384F841300C
:10409000A56B114BAB62A56B104BEB62A56B104B84
:1040A0002B63A36B5863256813462A1DA06BFEF78C
:1040B0009DFB21686FF0400008602068143050E8D4
:1040C000001F41F0800140E80012002AF5D10020D5
:1040D00070BD012070BD00000B5300084D53000857
:1040E0001D52000800680349884202D1024900209D
:1040F0000870704700380140160000207047FEE746
:104100000148FEF7C3BC00001C00002038B5406A1F
:10411000002190F83D202B4B46F2A8141B68B3FBFE
:10412000F4F3C3EBC30303EB830300933BB15B1EC8
:10413000009303681B689B0505D5009BF6E7036C9D
:1041400043F020030364436B03B19962836B03B1B3
:10415000996203681C6824F480641C604185436B89
:1041600003B15963836B03B1596303681C6824F07E
:1041700001041C6090F83D402023602C0BD02824C3
:1041800034EA02020FD080F83D3080F83E1000BFC4
:10419000FEF794FD38BD80F83D3080F83E10016494
:1041A000FEF772FC38BD0268136843F00103136028
:1041B0000268136843F480631360016380F83D4034
:1041C000E6E700000C00002010B5406A0021426BB9
:1041D00002B19162826B02B191620268136823F4AA
:1041E000806313604185202280F83D2080F83E10D6
:1041F000016C41F010010164FEF760FD10BD2DE976
:10420000F041446A94F83D2094F83E50E16A2068F9
:10421000436823F440734360636B002003B19862EA
:10422000A36B03B19862212333EA02074FF0220601
:104230000CD036EA020701D1202D07D094F83E2099
:10424000002A21D0628D012A20D024E021684D6807
:1042500025F400654D6060852820292A02D02A2A8D
:1042600007D00CE0236384F83D002046FEF7C5FF2D
:1042700005E0266384F83D002046FEF7BDFF206878
:10428000416841F440714160BDE8F08122681368E3
:1042900023F4806313602268536823F440735360EF
:1042A00011F5803F06D0082904D0B1F12A4F01D082
:1042B000202904D121680A6842F400720A6021684A
:1042C0004A6822F480524A6021684A6822F40062F7
:1042D0004A606085216C19B12046FEF7EFFCD3E7F8
:1042E000202184F83D1094F83E1084F83E004029C7
:1042F00005D0122020632046FEF7A7FDC4E7206307
:104300002046FEF7A4FDBFE700684169C9430906DE
:1043100001D400210161704770B5044690F83D005A
:1043200094F83E10102901D0402906D1222804D14A
:1043300021680A6822F400620A60282131EA00023A
:104340004FF000054FF0200626D021684968090586
:1043500005D4602803D084F83D6084F83E5025637E
:1043600020684168090537D5416821F40061416042
:10437000606B90F821203C49012A11D04163606BA9
:10438000FEF70CF938B32068016821F001010160E3
:1043900084F83D60606B1CE0256384F83D10DFE726
:1043A000A06B4163A06BFEF7F9F8A0B120684169EA
:1043B000C943490605D40069616A0870606A401CF7
:1043C00060622068016821F00101016084F83D60AD
:1043D000A06B416B884710E094F83D10602910D025
:1043E0004169C943490605D40069616A0870606A79
:1043F000401C60622046FEF761FC206CC1071CD1A6
:1044000015E084F83D6025644169C943490605D437
:104410000069616A0870606A401C60622068016817
:1044200021F0010101602046FEF72EFBE5E7810740
:1044300003D4410701D4000704D52068416821F462
:10444000E061416094F83D00216C49070BD52828B4
:1044500009D10648E062256384F83D6084F83E5047
:104460002046FEF7F1FC70BD0D4100080000FFFF83
:1044700001684A69D24352050FD46FF480624A61E1
:10448000002140F8301F202242738173026942F0FC
:10449000040202610173012070470020704710B5CB
:1044A000C26A438D0168042B06D0438D032B08D0CC
:1044B000438D022B1DD012E04A6822F480624A60CC
:1044C0000CE04B6823F480634B60042A06D0022A78
:1044D00004D001680A6822F480620A6001680969F0
:1044E000426A1170416A491C4162418D491E4185F1
:1044F00010BD012A30D0102A2ED0042A30D0022A32
:104500002ED00A6842F400720A6001680969426AA2
:104510001170416A491C4162428D521E42850268F7
:1045200012690A70416A491C4162418D491E4185E8
:1045300001684A6822F440724A60202180F83D10E8
:1045400090F83E200021402A80F83E100CD0122125
:104550000163FEF77AFC10BD0A6822F48062D3E79B
:104560000A6842F48062CFE70163FEF770FC10BD79
:1045700038B590F83D1022290FD1418D03290DD96E
:1045800001680969426A1170416A491C4162418DA2
:10459000491E4185418D032906D038BDC26A022AD1
:1045A00002D0012906D029B10068416821F4806158
:1045B000416038BD274946F2A81300220968B1FBC3
:1045C000F3F101EB8101009101682023009C641E3E
:1045D000009422D00C68A405F8D40C6824F48064FC
:1045E0000C6001684C6824F4E0644C60016809695F
:1045F000446A2170416A491C4162418D491E4185CE
:1046000080F83D3090F83E1080F83E2040291DD0C3
:1046100012210163FEF719FC38BD046C44F020043C
:1046200004644C6824F4E0644C6001680969446ADD
:104630002170416A491C4162418D491E418580F8C3
:104640003D3080F83E20FEF739FB38BD0263FEF7AF
:10465000FEFB38BD0C00002010B5C26A90F83D107A
:1046600021290BD1418D51B1416A0268097811614C
:10467000416A491C4162418D491E418510BD20237C
:104680000021082A13D0202A11D012F5803F0ED025
:104690000268546824F4E06454601122026380F8D4
:1046A0003E1080F83D3000BFFEF7D0FB10BD026821
:1046B000546824F4E06454600268146844F400749C
:1046C0001460016380F83D3090F83E2080F83E1081
:1046D000402AE9D1FEF7BCFB10BD000010B590F8F0
:1046E0003D1090F83E30C26A048DB4B1212903D048
:1046F000402B11D122290FD1418DE1B390F83E100A
:10470000402942D0416A026809781161416A491C16
:104710004162418D491E418510BD2129E8D12023E8
:104720000021082A13D0202A11D012F5803F0ED084
:104730000268546824F4E06454601122026380F833
:104740003E1080F83D3000BFFEF780FB10BD0268D0
:10475000546824F4E06454600268146844F40074FB
:104760001460016380F83D3090F83E2080F83E10E0
:10477000402AE9D100E002E0FEF76AFB10BD0068C4
:10478000416821F48061416010BDBDE8104000F037
:10479000F3B8000078B590F83E50C26A046B90F808
:1047A0003D6000230168222E73D1066D0EB9402DA5
:1047B0006FD0056D1DB90569B5F5404F1BD0458D0E
:1047C00095B3468D484D012E20D0448D022C4DD0FE
:1047D0000C6844F480640C6001684C68240579D549
:1047E000AA4273D0012A71D0082A6FD0102A6DD046
:1047F000202A6BD06EE04A698A6900920A6842F406
:1048000080720A60016D491C016578BDAA4214D10D
:104810000A6822F480620A6001684A68120504D5B9
:104820000A6822F4806217E0FFE74A698A69009209
:104830000A6842F400720A6050E0082A10D0202A68
:104840000ED0122C0AD0042A03D0022A01D0102A3A
:10485000E6D10A6842F480620A603BE0012ADFD0B8
:104860000A6822F480620A600168DEE7042A11D037
:10487000022A0FD0102A0DD00C6844F400640C609A
:1048800001684C698C6900940C6824F480640C60A5
:1048900008E025E00C6844F480640C6001684C6911
:1048A0008969009101684C68240517D5AA4207D090
:1048B000012A05D0082A03D0102A01D0202A0DD1C0
:1048C0004A6842F480524A6008E0FFE74A6842F4CE
:1048D00080524A6001684A6989690091036578BD20
:1048E00048698869009078BD0000FFFF90F83E108D
:1048F000402910D00169B1F5804F19D0016DA9B3DD
:10490000016D012910D1416C5FF0F10201F4407199
:1049100042EAD11106E0016D0029416C05D0C9B20F
:1049200041F0010100680161704701F0FE01F9E703
:1049300090F83D102129416C09D0C9B241F0010124
:1049400002681161416B29B1896A49B902E001F03D
:10495000FE01F5E7816B0029E6D0896A0029E3D0E2
:104960000068416841F4006141607047FFE7416CB5
:10497000F02201F44071CBE710B590F83D10026DC4
:104980004AB1026D012A14D0026D022A16D0BDE888
:104990001040FFF7B9BCC16C0129816C02D0C1F392
:1049A000072108E00268C9B21161016D891C016527
:1049B00010BD816CC9B20268116123E022291CD0AC
:1049C000428D0AB1212920D0428D002AF0D121291F
:1049D000EED101684A6822F4E0624A6001680A6820
:1049E00042F400720A6000210163202280F83D2019
:1049F00080F83E10FEF72CFA10BD01680A6842F4F8
:104A000080720A60016D491CD1E7416A0268097829
:104A10001161416A491C4162418D491E418510BDA9
:104A20002DE9F843044600680D46DDE90897016862
:104A30009846164641F4807101604B4600224FF0C3
:104A400001112046009700F03DF948B12068006848
:104A5000C00502D54FF4007020640320BDE8F88340
:104A6000216805F0FE0008613B464A46154920468C
:104A700000F070F988B920684169806900903A4671
:104A80004946204600F0C4F948B1206C042804D1FE
:104A90002068016841F4007101600120DEE7F5B291
:104AA000B8F1010F09D02168300A08613A46494639
:104AB000204600F0ADF90028E7D12068056100200C
:104AC000CCE700000200010038B50C4690F83D200C
:104AD00000212825954302680B4605D0516991694C
:104AE000009180F83C3038BD556825F480655560EC
:104AF000E243540700D50121120601D5828900E066
:104B0000028B80F83C3092B2FDF7BFFF38BD000049
:104B1000F8B590F83D6004460068416821F4E06112
:104B200041602068002541690091016841F0010160
:104B300001602068016821F480610160206841689B
:104B4000090520D5474F222E48D02A2E46D0616B2A
:104B5000096849686185618D19B1216C41F00401D2
:104B60002164416821F400614160606BFDF762FDE2
:104B7000012808D0606B4763606BFDF70FFD10B133
:104B8000606B416B8847608D08B320684169C943F9
:104B9000490708D40069616A0870606A401C606255
:104BA000608D401E608520684169C943490608D46C
:104BB0000069616A0870606A401C6062608D401E16
:104BC0006085608D18B1206C40F004002064206C7A
:104BD00000B32046BDE8F840FFF79EBBA16B096813
:104BE00049686185618D19B1216C41F0040121642E
:104BF000416821F400614160A06BFDF71BFD0128B5
:104C0000C1D0A06B4763A06BFDF7C8FC0028BAD0E9
:104C1000A06BB6E72A2E06D12563282084F83D0034
:104C20002046FEF7E9FA94F83D10202028290DD0FF
:104C3000216B222901D0222E07D1256384F83D0063
:104C400084F83E502046FEF7D7FAF8BD0649E162E7
:104C5000256384F83D0084F83E502046FEF7F4F8C2
:104C6000F8BD00000D4100080000FFFF70B51646BA
:104C70000D4604461EE02046FFF7FAFB08B101206E
:104C800070BD681C16D0FDF7F9FE801BA84200D845
:104C900085B920684069C04340070BD5002044F81F
:104CA000300F20216173A073216941F0200121613F
:104CB0002073E4E720684069C0434007DBD400204C
:104CC00070BD00002DE9F047984617460D46044692
:104CD000C1F30746DDF820902AE000BFB8F1FF3F9E
:104CE00026D0FDF7CBFEA0EB0901414502D8B8F173
:104CF000000F1DD12068012E16D0806925EA000022
:104D00000004000C12D00020B84211D1002044F859
:104D1000300F20216173A073216941F020012161CE
:104D200020730120BDE8F0874069E7E70120EBE749
:104D30002068012E0AD0806925EA00000004000CDA
:104D400006D00020B842C9D00020EBE74069F3E765
:104D50000120F7E72DE9F047984616460D46044630
:104D60004FF000094FF0200AC1F3074723E0206805
:104D70004069C043400515D42068016841F40071C2
:104D8000016021686FF480604861C4F8309084F855
:104D90003DA084F83E90216C41F00401216484F828
:104DA0003C9021E0701C06D0FDF768FEA0EB0800E7
:104DB000B04203D816B1012F1FD021E02068012F87
:104DC00015D0806925EA00000004000C18D000BF4F
:104DD00044F8309F84F80DA084F80E90216941F0CA
:104DE0002001216184F80C900120BDE8F087406922
:104DF00025EA00000004000CEAD12068406901E0C7
:104E00002068806925EA00000004000CAFD1ECE7BF
:104E100070B516460D4604461EE02046FFF728FBF7
:104E200008B1012070BD681C16D0FDF727FE801B5D
:104E3000A84200D885B920684069C04300060BD558
:104E4000002044F8300F20216173A073216941F0E4
:104E5000200121612073E4E720684069C043000617
:104E6000DBD4002070BD0000114808B5416941F055
:104E7000010141614069002200F0010000901146EB
:104E80000E20FEF721FA0E20FEF710FA002211463E
:104E90000F20FEF719FA0F20FEF708FA002211463C
:104EA0001020FEF711FABDE808401020FEF7FEB909
:104EB0000010024030B585B00020009001900290B3
:104EC00003901A48816941F010018161816901F004
:104ED00010010491816941F020018161816901F033
:104EE00020010491816941F004018161816901F02F
:104EF00004010491816941F0080181618069012206
:104F000000F008000A4D5403049021462846FDF79E
:104F1000AFFD01210320CDE90210CDE90041694632
:104F20002846FDF7ADFC05B030BD00000010024082
:104F3000001001400D4810B50B4901600C4941605B
:104F400000214FF480428160C0E903124161816118
:104F5000C1610162FDF7B4FE002803D0BDE8104036
:104F6000FDF7F0BA10BD0000005400401C00002006
:104F7000801A060010B586B00024174800940194EA
:104F800002940394049413490594016041F61F416F
:104F9000C0E901140921C0E903148461FEF77CFC17
:104FA00008B1FDF7CFFA4FF48050009069460A48E7
:104FB000FEF7EAFC08B1FDF7C5FA049404A9064817
:104FC0000594FEF735FC002801D0FDF7BBFA06B0CA
:104FD00010BD000000080040B400002010B5114CC6
:104FE0000F480C212060104860600020A060E06045
:104FF000C4E90401A061E0612046FEF769FF08B141
:10500000FDF7A0FA2068C16841F01001C1600549B0
:105010006322BDE8104064390248FEF7F7BF000084
:10502000003801406001002040420F00FEE7FEE72B
:10503000704770470149012008707047190000202F
:10504000014900200870704719000020FEF7D6B80B
:1050500030B58FB028216846FBF785F914210AA8DE
:10506000FBF781F901210804CDE900100024029426
:1050700002250491CDE907504FF4E01009906846ED
:10508000FEF730FA08B172B6FEE70F20CDE90A0547
:105090004FF48060CDE90C4002210AA80E94FEF77F
:1050A00045F9002801D072B6FEE70FB030BD704759
:1050B0000148FEF7D8BC0000B4000020F0B502683B
:1050C000164B174C174D4FF08047984205D0B84209
:1050D00003D0A04201D0A84203D122F070064A6852
:1050E0003243984205D0B84203D0A04201D0A84232
:1050F00003D122F44074CA6822434C6922F0800232
:10510000224302608A68C2620A688262984201D1C0
:105110000969016301214161F0BD0000002C0140DB
:10512000000400400008004010B5846842EA0322F1
:1051300024F47F440A432243826010BD826822F037
:1051400070020A4342F007018160704710B5036A9C
:10515000046A24F001040462846924F0F00444EA3F
:10516000021423F00A020A438461026210BD10B5E2
:10517000036A046A24F010040462846923F0A00323
:1051800024F4704444EA023243EA0111826101626C
:1051900010BD0000F0B4D0B1012820D01A4C022874
:1051A000A4F580631ED003280FD10021002004EB5A
:1051B000C11503EBC1122F5C165C3E431654401C14
:1051C0008028F8DB491C0829F0DBF0BC7047F0BCF4
:1051D0000D494FF48062A1F58060FBF75DB8F0BC2B
:1051E000FDF766B90021002004EBC11503EBC112E5
:1051F0002F5C165CBE431654401C8028F8DB491C0B
:105200000829F0DBE1E700005C0C002010B5406AE3
:105210000021C185C184FEF723FD10BD70B5446A2D
:105220002068406994F84110C0F3C010002521297E
:1052300004D118B1E584204600F0B4F82068406934
:1052400094F84210C0F38010222904D118B1E585EA
:10525000204600F080F8606C40F01000606420464A
:10526000FEF7FEFC70BD10B50146406A096809688A
:105270004FF0000289062ED4C28501680C3151E836
:10528000003F23F4807341E80034002CF5D101681D
:10529000143151E8003F23F0010341E80034002CB1
:1052A000F5D10168143151E8003F23F0400341E893
:1052B0000034002CF5D1202180F84210016B012927
:1052C00009D101680C3151E8003F23F0100341E897
:1052D0000034002CF5D14263016B012902D0FEF7A6
:1052E000A3FE10BD818DFEF782FC10BD10B5406A93
:1052F00001214163016B012902D0FEF7B5FE10BD0B
:10530000818D4908FEF773FC10BD10B50146406A57
:1053100009680968890616D40021C184016814311E
:1053200051E8002F22F0800241E80023002BF5D144
:1053300001680C3151E8002F42F0400241E800239F
:10534000002BF5D110BDFEF7CDFE10BD10B5406AA3
:10535000FEF7D4FE10BD01680C3151E8002F22F495
:10536000907241E80023002BF5D10168143151E817
:10537000002F22F0010241E80023002BF5D1016B40
:10538000012909D101680C3151E8002F22F01002E7
:1053900041E80023002BF5D1202180F842100021A4
:1053A0000163704701680C3151E8002F22F0C00200
:1053B00041E80023002BF5D1202180F841107047EF
:1053C00008B590F84210222901D0022008BD826859
:1053D0004FF480539A4201D1016921B1816A9A4206
:1053E0001BD04AB10AE00268816A5268C2F308021F
:1053F0000A80816A891C08E0026972B102685268F9
:1054000002F07F020A70816A491C8162C18D491EC7
:105410000904090CC18503D01BE002685268F1E75A
:105420000168CA6822F02002CA600168CA6822F4D2
:105430008072CA6001684A6922F001024A61202133
:1054400080F8421000214163026B012A03D0FEF76D
:10545000EBFD002008BD016301680C3151E8002F0D
:1054600022F0100241E80023002BF5D101680A6800
:10547000D20602D50A6849680091818DFEF7B7FB14
:10548000E7E7000070B5044600680169E26821F4AE
:105490004051114301612169A068084361690843D3
:1054A0002168CA6841F20C639A430243CA602068CB
:1054B0004169A26921F44071114341611E4920688C
:1054C000884202D1FDF7D8FF01E0FDF7C5FF00EBF0
:1054D000C00101EB0012606864218000B2FBF0F3B0
:1054E000B3FBF1F36FF018067343B2FBF0F5B2FBB8
:1054F000F0F605EB8305322303EB0515B5FBF1F55B
:10550000B6FBF1F605F0F00505EB0615B2FBF0F67B
:10551000B2FBF0F0B0FBF1F06FF01802504306EB75
:10552000800003EB0010B0FBF1F0216800F00F00E9
:105530002844886070BD00000038014038B58162A1
:1055400004468285002013466064222284F84220AB
:10555000E56B1B4AAA62E56B1A4AEA62E56B1A4AD6
:105560002A63E26B50630A462168E06B091DFDF770
:105570003DF92068016840680090206948B12068C2
:105580000C3050E8001F41F4807140E80012002AFE
:10559000F5D12068143050E8001F41F0010140E8C7
:1055A0000012002AF5D12068143050E8001F41F0A5
:1055B000400140E80012002AF5D1002038BD00006B
:1055C00067520008ED5200081D52000810B50D4842
:1055D000FEF748FB0C48006801070A4801D501683E
:1055E000496800680168C943C90609D40168406870
:1055F0000448FEF7FDFABDE810400248FEF714BD6E
:1056000010BD000060010020003801400B4908B5C2
:1056100000200870B0218DF800108DF801001020D6
:105620008DF8020003226946002000F0C7F98022AD
:105630000349402000F0D0F908BD00001A00002006
:105640005C08002010B50020FFF7A4FDFFF7DEFF87
:105650000120FFF79FFDBDE810401420FDF7FEB8C4
:10566000FEE700002DE9F0410024DFF838802746EE
:1056700004F1B000C0B200F0BDF9002000F0BAF9AA
:10568000102000F0B7F9002508EBC416002000F048
:10569000C3F977556D1C802DF8DB641C082CE7DB03
:1056A000BDE8F0815C0800202DE9F043A1B01F4661
:1056B00090460D4604460026E946D1E0B8F10E0FAB
:1056C00030D2DFE808F007305D92CACACACACACA37
:1056D00007305D928028F3D2654900EB400001EB72
:1056E0004000B8F10A0F50F8C01D00918088ADF855
:1056F00004000CD19DF800204946D2438DF80020CB
:1057000001200A5CD2430A54401C0628F9DB062318
:105710006A462946204600F027F9A41D7A2C01DDAF
:1057200000246D1C99E0802824D220385149C0B251
:1057300001EB001110226846FAF7AEFDB8F10B0F2D
:105740000CD19DF800204946D2438DF8002001205D
:105750000A5CD2430A54401C1028F9DB08236A462D
:105760002946204600F000F90823691C204602AAB9
:1057700000F0FAF80834782C6FDD0024AD1C6CE0E2
:1057800080282CD22038C0B23B4900EBC00001EB8E
:10579000800124226846FAF77FFDB8F10C0F0CD186
:1057A0009DF800204946D2438DF8002001200A5C74
:1057B000D2430A54401C2428F9DB0C236A462946AC
:1057C000204600F0D1F80C23691C204603AA00F003
:1057D000CBF80C23A91C204606AA00F0C5F80C340F
:1057E000742C3ADD0024ED1C37E0802830D22038BC
:1057F0002249C0B201EB801140226846FAF74CFD05
:10580000B8F10D0F0CD19DF800204946D2438DF818
:10581000002001200A5CD2430A54401C4028F9DBD6
:1058200010236A462946204600F09EF81023691C82
:10583000204604AA00F098F81023A91C204608AAC4
:1058400000F092F81023E91C20460CAA00F08CF816
:105850001034702C01DD00242D1D072D04DC761C76
:10586000B85D00287FF42AAF21B0BDE8F0830000C6
:10587000636F00088B7100087B770008D7840008ED
:1058800010B5AE2000F0B6F8002000F0B3F81020FC
:1058900000F0B0F8402000F0ADF8B02000F0AAF819
:1058A000812000F0A7F8FF2000F0A4F8A12000F06C
:1058B000A1F8A62000F09EF8A82000F09BF83F2059
:1058C00000F098F8C82000F095F8D32000F092F886
:1058D000002000F08FF8D52000F08CF8F02000F0C8
:1058E00089F8D82000F086F8052000F083F8D92048
:1058F00000F080F8F12000F07DF8DA2000F07AF86E
:10590000122000F077F8DB2000F074F8302000F06F
:1059100071F88D2000F06EF8142000F06BF8AF20C5
:1059200000F068F8FFF786FBFCF7C2FDFFF79AFE70
:10593000FFF76CFEBDE81040FFF782BB0FB470B5F7
:1059400014460D46064608AA06480799FAF792FC3F
:10595000044B224629463046FFF7A6FE70BC5DF890
:1059600014FB00005C1000202DE9F0411E46174694
:105970000C46054680281AD2002C18DB082C16DAB3
:1059800005EBC4103044B0F5806F10D8FCF7DCFD97
:1059900001280AD0074800BF00EBC4102844324653
:1059A0003946BDE8F041FAF777BC0348F4E7BDE8B3
:1059B000F08100005C0C00205C0800200EB505237F
:1059C00092B28DE80E000246012378210148FDF7CE
:1059D00063FA0EBD1C0000201CB592B2CDE9001286
:1059E0000246012378210248FDF7EEFA1CBD0000B3
:1059F0001C00002001B584B0012004A9CDE90010ED
:105A000003460290002278210248FDF745FA05B0CE
:105A100000BD00001C00002001B584B0012004A9D5
:105A2000CDE9001003460290402278210248FDF79C
:105A300033FA05B000BD00001C000020490050EA08
:105A4000C12018BF04204A0D18BF40F0010040F2E9
:105A5000FF72B2EB515F08BF40F00200012808BF9F
:105A6000052070470907090E002804DB00F1E0203B
:105A700080F80014704700F00F0000F1E02080F87B
:105A8000141D70472DE9F74F144694B00021C4E966
:105A900002111599079121F00045C9498D4206DC94
:105AA0001599C4E9000117B00020BDE8F08FC54981
:105AB000DFF814A3A9423CDD0799C44E0029C44F66
:105AC000C44A1599534619DD01F008F8554506D02A
:105AD000C14AC24B01F002F8C4E900010AE04FF0EC
